:100000000C943C000C9459000C9459000C94590029
:100010000C9459000C9459000C9459000C945900FC
:100020000C945B000C9459000C9459000C945900EA
:100030000C9459000C947B000C9459000C945900BA
:100040000C9459000C9459000C9459000C945900CC
:100050000C9459000C9459000C9459000C945900BC
:100060000C9459000C9459000C9459000C945900AC
:100070000C9459000C94590011241FBECFEFCDBF32
:10008000DFE3DEBF18E3A0E0B8E3ECE2FAE002C091
:1000900005900D92A230B107D9F728E3A2E0B8E3AA
:1000A00001C01D92AD37B207E1F70E94A4000C9485
:1000B00014050C9400001F920F920FB60F9211249A
:1000C0008F93EF93FF93E0E0FAE08385816083876D
:1000D000809108388F5F80930838809108388F337B
:1000E00011F410920838FF91EF918F910F900FBE8D
:1000F0000F901F9018951F920F920FB60F92112418
:100100002F938F939F93EF93FF93E0E8FAE086811C
:1001100081608683809106389091073889389341B1
:1001200048F48091063890910738019680930638FC
:1001300090930738FF91EF919F918F912F910F909E
:100140000FBE0F901F901895CF93DF93CDB7DEB7FA
:100150002897CDBFDEBF60E081E690E00E94C90431
:100160000E94B4020E943C010E94490120E040E04C
:1001700062E380E00E94860119821A821B821C823F
:100180001D821E821F8218867894EE24E394F12C3F
:10019000CC24CA94DC2C00E414E0809106389091C1
:1001A000073889389341C9F7F89419821A821B825B
:1001B0001C821D821E821F821886809104389091B5
:1001C00005389C01992314F4215F3F4FF901F595FF
:1001D000E795F595E795F595E795F595E795EE0F94
:1001E000FF1F41E050E04C0F5D1FE40FF51F9C0125
:1001F0002F703078332334F421503109206F3F6F52
:100200002F5F3F4FA70102C0440F551F2A95E2F709
:1002100040835183813491052CF0C0920238D092F2
:10022000033806C0009721F4E0920238F0920338B8
:100230002091023830910338820F931F8093043845
:1002400090930538CE0101960E946A0180E991E001
:100250000197F1F7F80184818860848380E991E057
:100260000197F1F7F8018481877F84831092063823
:1002700010920738789491CFE0E0FAE087E190E0BF
:1002800086A397A382858160828780818B6080832B
:100290000895E0E8FAE084EC99E084879587858109
:1002A000816085838081836080830895FC01218142
:1002B000FB01918161E070E0921710F060E070E066
:1002C00041E050E0291710F040E050E0CB01841BE2
:1002D000950B0895CF93DF93DC019C01285F3F4F7E
:1002E000E0ECF8E0938195FFFDCFED0111968C9144
:1002F00011978483938195FFFDCF12968881848323
:10030000A217B30779F7DF91CF910895CF93DF93C9
:1003100090E0FC01EE0FFF1FDF01A80FB91FAA0F2D
:10032000BB1FA35BB74CCD91DC91119768831296EC
:100330000D90BC91A02D4C93E80FF91FEE0FFF1FFD
:10034000E35BF74C0480F581E02D208381E080930E
:100350000A38DF91CF910895ABE0B8E381E08C9348
:10036000EDE4F8E38CE098E38083918382E01296D9
:100370008C9312978EE098E38283938314961C9259
:10038000149780E198E38483958384E016968C9398
:10039000169782E198E38683978385E018968C937D
:1003A000189784E198E38087918783E01A968C936D
:1003B0001A9786E198E38287938787E01C968C934F
:1003C0001C9788E198E38487958788E01E968C9334
:1003D0001E978AE198E38687978786E050968C93EC
:1003E00050978CE198E3808B918B8AE052968C93A6
:1003F00052978EE198E3828B938B8BE054968C938B
:10040000549780E298E3848B958B89E056968C9381
:1004100082E298E3868B978BE3E2F8E31082118205
:1004200012820895CF93DF9380910A38882309F4CC
:100430008FC010920A38EBE0F8E3C5E6D8E323E278
:1004400038E3DE0180818C93818111968C93119722
:1004500032961296E217F307A9F726E531E042E05B
:1004600050E06CE070E085E698E30E94250310926E
:100470000038E3E2F8E3128287EE97EE80839183FF
:10048000709166387F3308F051C04BE758E360E065
:1004900021E030E0862F90E0FC01EE0FFF1F8E0F71
:1004A0009F1FFC01ED5DF74C82818717D0F46F5FD1
:1004B000862F90E0DC01AA0FBB1FA80FB91FAD5D0E
:1004C000B74C12967C9312970197FC01EE0FFF1F19
:1004D0008E0F9F1FFC01ED5DF74C808191818D9304
:1004E0009C93E62FF0E0CF01880F991FE80FF91FCA
:1004F000ED5DF74CC901088002C0880F991F0A946E
:10050000E2F780959095A081B1818A239B23808317
:100510009183C417D50719F46093003807C0229659
:1005200079817F3308F4B6CF60930038209100388A
:1005300081E0820F90E0FC01EE0FFF1F8E0F9F1FE6
:10054000FC01ED5DF74C8FE382832E5F2093003832
:1005500081E080930938609123387091243880912C
:100560002538DF91CF910895E0E0F4E080818A6042
:100570008083E0E4F4E0808188608083E0ECF8E050
:1005800080E2808384E881838081816080830E940F
:10059000AC0120E040E060E080E00E94860120E0C5
:1005A00040E060E081E00E94860120E040E060E001
:1005B00082E00E94860120E040E060E083E00E944B
:1005C00086010E9412020895DC01FB018C9190814A
:1005D0009D9381934150510914161506BCF308955B
:1005E000A0E0B0E0E6EFF2E00C94ED047C016B01DA
:1005F000D42FC52F8901F90109956D2F7C2F97FF05
:1006000010C0C601F801099597FF02C0C60118C0C5
:100610006D2F7C2FC701F801099597FD0FC0C70109
:100620000FC0C601F8010995181619067CF36D2F45
:100630007C2FC701F801099597FDF1CF8D2F9C2FD5
:10064000CDB7DEB7E8E00C940605AAE0B0E0EBE237
:10065000F3E00C94E3048C017B0149875A8769011C
:1006600029853A85200F311F29833A8337E0E31625
:10067000F10470F569807A8049855A85E49E5001BD
:10068000E59EB00CF49EB00C1124A00EB11E6A14AD
:100690007B0408F07AC173010E151F0528F08985C7
:1006A0009A85680E791EF3CF4701E985FA858E1A7F
:1006B0009F0AB701C401F6010995181619067CF7BF
:1006C00049855A85B401C7010E94E4027401E4CF50
:1006D000C7019695879529853A85829F5001839F0A
:1006E000B00C929FB00C1124A00EB11EA701415076
:1006F00051094B835C8357E0E516F10409F44CC0C3
:100700008B819C81829F3001839F700C929F700C23
:100710001124600E711E99E2E916F104A8F1C701D7
:1007200043E0969587954A95E1F7829F4001839F24
:10073000900C929F900C11241401220C331CA801E0
:10074000420D531DB801680D791D9601C8010E9424
:10075000F0022C01A501480D591D91948194910836
:100760009601B501C501880D991D0E94F0025C013A
:10077000B301680D791D9601A301C3018219930984
:100780000E94F0023C0101C028019601A301B501BD
:10079000C2010E94F0025C0149855A85B501C80179
:1007A0000E94E40269807A802B813C8149855A85C8
:1007B000249FF001259FF00D349FF00D1124ED834F
:1007C000FE835F01A00EB11E460D571D4B835C8357
:1007D0002501130119821A828B809C8089859A8554
:1007E000881A990AA814B90408F450C0B801C401C1
:1007F000F601099518161906C4F1892B71F449857B
:100800005A85B401C1010E94E40289859A85280EA7
:10081000391EE1E0F0E0E983FA832B813C814985D0
:100820005A85240F351F2B833C83D6CFB801C501D1
:10083000F6010995950149855A85241B350B2F83AF
:10084000388797FD16C0892B71F449855A85B20106
:10085000C5010E94E40229853A85421A530A41E003
:1008600050E049835A83AF80B884A814B904F0F6E5
:100870000DC049855A85B501C4010E94E402AF80CC
:10088000B88441E050E049835A83C7CF89819A8177
:10089000892B09F44FC06D807E8029853A85620ED0
:1008A000731E600E711E7401E218F308A101401B53
:1008B000510BE416F5060CF4A7011416150634F4D2
:1008C000B401641B750BC8010E94E402A2014A191D
:1008D0005B095A01A3014419550989859A85481B6A
:1008E000590BA416B50608F4A5011416150634F420
:1008F000B301641B750BC4010E94E402E985FA850B
:10090000EE15FF0548F4C701BF010E94CF04960110
:10091000AF01C8010E94250329853A852A153B05A8
:10092000A0F583010A191B09C501B9010E94CF0472
:100930007B0196CEE985FA85EE9E5001EF9EB00CC4
:10094000FE9EB00C1124A00EB11E6A147B04E8F4C4
:1009500073010E151F0528F089859A85680E791E8A
:10096000F4CF4701E985FA858E1A9F0AB701C401C1
:10097000F6010995181619067CF749855A85B401C0
:10098000C7010E94E4027401E4CF2A96E2E10C94CC
:10099000FC04DC0128ED209334006C930895AA1B1D
:1009A000BB1B51E107C0AA1FBB1FA617B70710F05A
:1009B000A61BB70B881F991F5A95A9F7809590958C
:1009C000BC01CD0108952F923F924F925F926F929A
:1009D0007F928F929F92AF92BF92CF92DF92EF92CF
:1009E000FF920F931F93CF93DF93CDB7DEB7CA1B50
:1009F000DB0BCDBFDEBF09942A88398848885F8425
:100A00006E847D848C849B84AA84B984C884DF80AE
:100A1000EE80FD800C811B81AA81B981CE0FD11D92
:0C0A2000CDBFDEBFED010895F894FFCFBC
:020A2C000100C7
:00000001FF
